:100000000C942A000C94FC000C943C000C943C00D2
:100010000C943C000C943C000C943C000C943C0070
:100020000C943C000C943C000C943C000C943C0060
:100030000C943C000C943C000C943C000C943C0050
:100040000C943C000C943C000C943C000C943C0040
:100050000C943C0011241FBECFE5D8E0DEBFCDBF1D
:1000600020E0A0E6B0E001C01D92A236B207E1F7A1
:100070000E940B020C94F7040C9400000E94D6011D
:100080000E946D040E94B20480E00E94FC010E9464
:1000900066040E94E9018BB780648BBF8FB78068CC
:1000A0008FBF83E00E9458010895CF9310926000A3
:1000B00081E08093610082E00E9458010E948804E0
:1000C00082E00E94840181E00E945801C0E00DC0DE
:1000D00080916000813019F40E94840128C00E9440
:1000E0009D0481E00E94B001CF5FC53088F310927B
:1000F000610080E00E9458010E94880480E00E9414
:10010000840181E0809361000E945801C0E00DC02D
:1001100080916000813019F40E94840108C00E941F
:100120009D0481E00E94B001CF5FC53088F310923A
:100130006000CF9108950E945500FDCFCF9381E0DC
:100140008093600080916100882319F0813069F00C
:1001500032C080E00E94580183E00E94840185E063
:100160000E9458010E94CD0426C083E00E945801DD
:100170000E94CD0483E00E94840182E00E948401F9
:1001800081E00E94580184E00E945801C0E009C04B
:100190000E94E20481E00E94B00184E00E94B0016C
:1001A000CF5FC530A8F380E00E94580185E00E942F
:1001B00058010E94CD0480E00E94840181E00E94E9
:1001C000580184E00E945801C0E009C00E94E20486
:1001D00081E00E94B00184E00E94B001CF5FC53091
:1001E000A8F385E00E94840183E00E94580182E028
:1001F0000E945801CF9108951F920F920FB60F924F
:1002000011242F933F934F935F936F937F938F931B
:100210009F93AF93BF93EF93FF938FB78F778FBF6A
:100220008BB78F7B8BBF0E949E008BB780648BBF88
:100230008FB780688FBFFF91EF91BF91AF919F9172
:100240008F917F916F915F914F913F912F910F907F
:100250000FBE0F901F9018958230B1F028F48823BC
:1002600049F0813061F008958430C1F090F085301C
:10027000D1F0089561E088E20E941202089561E0E1
:1002800089E20E941202089561E08AE20E9412024D
:10029000089561E08AE00E941202089561E08BE017
:1002A0000E941202089561E08CE00E9412020895FB
:1002B0008230B1F028F4882349F0813061F008954C
:1002C0008430C1F090F08530D1F0089561E088E28B
:1002D0000E940103089561E089E20E9401030895EC
:1002E00061E08AE20E940103089561E08AE00E94D1
:1002F0000103089561E08BE00E940103089561E02D
:100300008CE00E94010308958230B1F028F4882324
:1003100049F0813061F008958430C1F090F085306B
:10032000D1F0089560E088E20E940103089560E042
:1003300089E20E940103089560E08AE20E940103BD
:10034000089560E08AE00E940103089560E08BE078
:100350000E940103089560E08CE00E94010308956B
:100360008230A1F028F4882349F0813059F00895B3
:100370008430A1F078F08530A9F0089588E20E94D9
:10038000F003089589E20E94F00308958AE20E9432
:10039000F00308958AE00E94F00308958BE00E9424
:1003A000F00308958CE00E94F003089580E00E941D
:1003B0002C0181E00E942C0182E00E942C0183E04C
:1003C0000E942C0184E00E942C0185E00E942C01F7
:1003D000089580E00E94840181E00E94840182E00F
:1003E0000E94840183E00E94840184E00E948401D1
:1003F00085E00E9484010895882319F0813031F04E
:10040000089560E086E10E941202089560E087E1AD
:100410000E94120208950E943E000E949B0080E00C
:1004200090E008959DEC899F912D112496959695C5
:100430009695662309F472C0613009F0E1C09230EC
:1004400021F118F4913039F008959330C1F19430CE
:1004500009F44CC008959DEC899F912D1124969527
:1004600096959695990F292F220F220F920F891B8F
:1004700047B321E030E0B90102C0660F771F8A95CB
:10048000E2F7CB01842B87BB08959DEC899F912DCA
:10049000112492959F70990F990F292F220F220FE7
:1004A000920F891B41B321E030E0B90102C0660F11
:1004B000771F8A95E2F7CB01842B81BB089599E8D9
:1004C000899F912D112492959F707EE1979F8019AD
:1004D000112444B321E030E0B90102C0660F771F58
:1004E0008A95E2F7CB01842B84BB08959DEC899F0C
:1004F000912D112492959695977078E2979F801987
:1005000011244AB321E030E0B90102C0660F771F21
:100510008A95E2F7CB01842B8ABB0895923029F1AA
:1005200018F4913039F008959330D1F1943009F4F2
:100530004FC008959DEC899F912D11249695969515
:100540009695990F292F220F220F920F891B47B3DF
:1005500021E030E0B90102C0660F771F8A95E2F70B
:10056000CB018095842387BB08959DEC899F912DB5
:10057000112492959F70990F990F292F220F220F06
:10058000920F891B41B321E030E0B90102C0660F30
:10059000771F8A95E2F7CB018095842381BB08956C
:1005A00099E8899F912D112492959F707EE1979FE4
:1005B0008019112444B321E030E0B90102C0660F74
:1005C000771F8A95E2F7CB018095842384BB089539
:1005D0009DEC899F912D112492959695977078E2C4
:1005E000979F801911244AB321E030E0B90102C07D
:1005F000660F771F8A95E2F7CB01809584238ABB2B
:1006000008959DEC899F912D112496959695969528
:10061000662309F472C0613009F0E1C0923021F123
:1006200018F4913039F008959330C1F1943009F401
:100630004CC008959DEC899F912D11249695969517
:100640009695990F292F220F220F920F891B48B3DD
:1006500021E030E0B90102C0660F771F8A95E2F70A
:10066000CB01842B88BB08959DEC899F912D11248B
:1006700092959F70990F990F292F220F220F920F99
:10068000891B42B321E030E0B90102C0660F771F39
:100690008A95E2F7CB01842B82BB089599E8899F64
:1006A000912D112492959F707EE1979F80191124BE
:1006B00045B321E030E0B90102C0660F771F8A958B
:1006C000E2F7CB01842B85BB08959DEC899F912D8A
:1006D000112492959695977078E2979F801911242E
:1006E0004BB321E030E0B90102C0660F771F8A9555
:1006F000E2F7CB01842B8BBB0895923029F118F4DB
:10070000913039F008959330D1F1943009F44FC00D
:1007100008959DEC899F912D112496959695969517
:10072000990F292F220F220F920F891B48B321E026
:1007300030E0B90102C0660F771F8A95E2F7CB015E
:100740008095842388BB08959DEC899F912D112469
:1007500092959F70990F990F292F220F220F920FB8
:10076000891B42B321E030E0B90102C0660F771F58
:100770008A95E2F7CB018095842382BB089599E89E
:10078000899F912D112492959F707EE1979F8019EA
:10079000112445B321E030E0B90102C0660F771F94
:1007A0008A95E2F7CB018095842385BB08959DEC63
:1007B000899F912D112492959695977078E2979F35
:1007C000801911244BB321E030E0B90102C0660F5B
:1007D000771F8A95E2F7CB01809584238BBB089520
:1007E0009DEC899F912D1124969596959695923022
:1007F00021F118F4913039F008959330C1F194301B
:1008000009F44CC008959DEC899F912D1124969573
:1008100096959695990F292F220F220F920F891BDB
:1008200048B321E030E0B90102C0660F771F8A9516
:10083000E2F7CB01842788BB08959DEC899F912D19
:10084000112492959F70990F990F292F220F220F33
:10085000920F891B42B321E030E0B90102C0660F5C
:10086000771F8A95E2F7CB01842782BB089599E828
:10087000899F912D112492959F707EE1979F8019F9
:10088000112445B321E030E0B90102C0660F771FA3
:100890008A95E2F7CB01842785BB08959DEC899F5B
:1008A000912D112492959695977078E2979F8019D3
:1008B00011244BB321E030E0B90102C0660F771F6D
:1008C0008A95E2F7CB0184278BBB089585B78160B9
:1008D00085BF85B7826085BF089583B7877F83BF53
:1008E00083B78F7B83BF089583B7816083BF83B74E
:1008F0008D7F83BF83B7846083BF089583B78E7F66
:1009000083BF83B78D7F83BF83B78B7F83BF0895FA
:100910008CE082BF0E94740488B7816088BF90E039
:1009200007C008B600FEFDCF88B7816088BF9F5F13
:100930009531B8F30E947E0408958CE082BF0E9436
:10094000740488B7816088BF90E007C008B600FED5
:10095000FDCF88B7816088BF9F5F9530B8F30E9454
:100960007E04089585B58F7B85BD85B5877F85BD60
:10097000089585B5816085BD85B5826085BD85B5E5
:10098000846085BD089585B58E7F85BD85B58D7FD5
:1009900085BD85B58B7F85BD08958CE084BD0E94A3
:1009A000B90488B7806488BF90E007C008B606FE27
:1009B000FDCF88B7806488BF9F5F9531B8F30E94F0
:1009C000C30408958CE084BD0E94B90488B7806494
:1009D00088BF90E007C008B606FEFDCF88B78064E8
:1009E00088BF9F5F9530B8F30E94C3040895F894C0
:0209F000FFCF37
:00000001FF
